:100000000C9463000C948B000C948B000C948B006C
:100010000C948B000C948B000C948B000C948B0034
:100020000C948B000C948B000C948B000C948B0024
:100030000C948B000C948B000C948B000C948B0014
:100040000C9423050C948B000C94E6060C94380752
:100050000C948B000C948B000C948B000C948B00F4
:100060000C9474030C948B00000000002400270003
:100070002A0000000000250028002B0000000000DE
:1000800023002600290004040404040404040202DA
:100090000202020203030303030301020408102007
:1000A0004080010204081020010204081020000012
:1000B0000007000201000003040600000000000029
:1000C00000001002A70811241FBECFEFD8E0DEBF4A
:1000D000CDBF11E0A0E0B1E0E4ECFAE102C0059090
:1000E0000D92A634B107D9F712E0A6E4B1E001C041
:1000F0001D92A03CB107E1F710E0C6ECD0E004C0CF
:100100002297FE010E945C0DC23CD107C9F70E94F4
:10011000FE080C94600D0C940000FB01DC0102C091
:1001200001900D9241505040D8F70895FB01DC0139
:1001300001900D920020E1F70895FB019F014230EC
:1001400074F0453264F4642F77270E94460D805D79
:100150008A330CF0895D8193CB010097A1F710825F
:10016000C9010C94B300DC01FC01672F7191772366
:10017000E1F7329704C07C916D9370836291AE1762
:10018000BF07C8F308958F929F92AF92BF92CF920C
:10019000DF92EF92FF920F931F93DF93CF9300D0E4
:1001A00000D000D0CDB7DEB78EE891E068E470E013
:1001B0000E94D6018EE891E06AEA0E9458028EE819
:1001C00091E00E949B028EE891E068E470E042E0DA
:1001D00050E00E94AC028EE891E00E94E001892B81
:1001E00031F08EE891E00E94E901182F00E08EE8DE
:1001F00091E00E94E001892B31F08EE891E00E94AD
:10020000E901082B192BE12EFF2481E190E0E80E93
:10021000F91E89E992E0B7014AE050E00E94E8093E
:10022000002319F460E071E002C063E071E089E945
:1002300092E00E94F90989E992E066E071E00E948B
:10024000FC096E010894C11CD11CC601B70142E033
:100250000E94A60AAD80BE809FEFE916F10409F066
:10026000B0F500E010E0FF24F394C601DC2CE92E89
:1002700081E0882E912C28C08D2D9E2DB8010E94E2
:100280000F0AFC018081803321F410924701109203
:1002900046018D2D9E2DB8010E940F0AFC01808120
:1002A000813321F49092470180924601F801E95E82
:1002B000FE4F80818A0D8F19609146010E943E0693
:1002C0000F5F1F4F82E0F80E0A151B05ACF282E0AB
:1002D0000E949206892B59F483E00E949206892B92
:1002E00031F489E992E067E071E00E94F90968EE73
:1002F00073E080E090E00E946B05CE0101960E94C1
:10030000D60A26960FB6F894DEBF0FBECDBFCF91AA
:10031000DF911F910F91FF90EF90DF90CF90BF90F2
:10032000AF909F908F900895CF93DF9389E992E0EB
:1003300040E855E260E070E00E947307C7E1D1E059
:10034000899161E00E94FF0581E0CF31D807C1F7B4
:100350008EE891E00E94B0028EE891E068E470E0DF
:100360000E94D6018EE891E06CEA0E9458028EE865
:1003700091E062E00E9458028EE891E068E470E04B
:100380000E94D6018EE891E06EEE0E9458028EE83F
:1003900091E00E949B0282E060E00E94FF0583E002
:1003A00060E00E94FF05DF91CF91089581E0809386
:1003B0008D0160936A0110928B0110928C01089557
:1003C0002091690130E080916801281B3109C90141
:1003D00008954091680180916901481718F02FEF46
:1003E0003FEF0AC0E42FF0E0E85BFE4F8081282F4A
:1003F00030E04F5F40936801C9010895E0916801C2
:1004000080916901E81718F0EFEFFFEF06C0F0E008
:10041000E85BFE4F8081E82FF0E0CF01089508955A
:10042000109291011092900188EE93E0A0E0B0E06C
:100430008093920190939301A0939401B0939501BE
:1004400089E291E090938F0180938E010895CF927D
:10045000DF92EF92FF920F931F93CF93DF937C0174
:100460006B018A0180918D018823A1F0C0E0D0E06A
:100470000DC0D701ED91FC91D601AC0FBD1F0190CD
:10048000F081E02DC7016C9109952196C017D10725
:1004900080F304C0CB01642F0E945903C801DF918F
:1004A000CF911F910F91FF90EF90DF90CF90089523
:1004B000DF93CF930F92CDB7DEB7FC0169838091B4
:1004C0008D018823C9F080918C01803238F081E061
:1004D00090E09383828320E030E015C080918B010F
:1004E000E82FF0E0E559FE4F998190838F5F80936C
:1004F0008B0180938C0105C0CE01019661E00E94C2
:10050000590321E030E0C9010F90CF91DF910895A8
:100510000F93062F80916A016BE671E040918C0188
:1005200021E00E94040310928B0110928C01109222
:100530008D010F91089561E00E9488020895413273
:1005400008F040E2862F68E471E00E94BB0210923E
:10055000680180936901089521E00E949F02089537
:10056000109268011092690110928B0110928C0117
:100570000E9405050895382F413210F040E042C036
:1005800080919A018823E1F791E090939A0120935A
:100590009C018FEF809307021092C201415040935B
:1005A000C3014F5F90939B0180919B01330F832B7D
:1005B00080939B0180919D01813041F410929D01B7
:1005C00080919B018093BB0085EC01C085EE8093F8
:1005D000BC0080919A018130E1F38091C2018417BF
:1005E00010F44091C20120E030E00AC0FB01E20FAC
:1005F000F31FD901AE55BE4F8C9180832F5F3F4FC3
:100600002417A0F3842F08950F931F93582F122FB0
:10061000413210F081E04AC080919A018823E1F7CD
:1006200082E080939A0100939C018FEF80930702F0
:100630001092C2014093C301A2EAB1E0FB0102C0E3
:1006400081918D938E2F861B8417D0F310929B017E
:1006500080919B01550F852B80939B0180919D017B
:10066000813041F410929D0180919B018093BB00E9
:1006700085EC01C085EE8093BC00112321F08091B0
:100680009A018230E1F3809107028F3F11F480E0FC
:100690000DC080910702803211F482E007C0809182
:1006A0000702803311F084E001C083E01F910F91B5
:1006B0000895482F613210F081E0089580919A01E9
:1006C000843011F082E008956093E501A4ECB1E07C
:1006D000842F9C01F90102C081918D938E2F841B80
:1006E0008617D0F380E008951F920F920FB60F92F5
:1006F00011242F933F934F935F936F937F938F9327
:100700009F93AF93BF93EF93FF938091B90090E0D5
:10071000887F90708036910509F4F2C0813691058A
:10072000CCF58832910509F47BC089329105B4F487
:100730008031910509F46FC0813191053CF4009737
:1007400009F447C1089709F04FC165C08831910588
:1007500009F466C0809709F047C182C080349105D2
:1007600009F4A4C08134910544F48033910509F45F
:1007700082C0C89709F038C189C08035910509F455
:1007800089C08835910509F496C08834910509F02F
:100790002BC1AEC08839910509F413C1893991057F
:1007A000ECF48837910509F4ABC0893791054CF416
:1007B0008836910509F4A4C08037910509F014C169
:1007C0009FC08838910509F4FCC08039910509F46F
:1007D0009DC08038910509F007C198C0803B910504
:1007E00009F4C6C0813B91054CF4803A910509F4A7
:1007F0009FC0883A910509F0F7C0BAC0803C9105C6
:1008000009F4E3C0883C910509F4DFC0883B9105F9
:1008100009F0EAC0C2C080919B018093BB00CFC0A9
:100820009091C2018091C301981768F49091C20120
:10083000E92FF0E0EE55FE4F80818093BB009F5F73
:100840009093C201BCC080919C01882309F44BC0E5
:1008500085ED8093BC008091BC0084FDFCCFC2C0BC
:1008600080E28093070285ED8093BC008091BC00FC
:1008700084FDFCCFB7C080E38093070285ED8093B1
:10088000BC008091BC0084FDFCCFACC088E38093A9
:1008900007029BC08091C2019091BB00E82FF0E05D
:1008A000EE55FE4F90838F5F8093C2019091C201FD
:1008B0008091C30182C08091C2019091BB00E82F5A
:1008C000F0E0EE55FE4F90838F5F8093C2018091E0
:1008D0009C01882341F085ED8093BC008091BC0091
:1008E00084FDFCCF7FC081E080939D0184EA6EC0CF
:1008F00085ED8093BC008091BC0084FDFCCF72C06C
:1009000083E080939A011092060259C080910602FA
:10091000803208F056C0809106029091BB00E82F0B
:10092000F0E0EA51FE4F90838F5F8093060247C04C
:1009300080910602803230F4E0910602F0E0EA5144
:10094000FE4F108285ED8093BC008091BC0084FD39
:10095000FCCF10929A0160910602E091A001F09103
:10096000A10186EE91E070E00995109206022DC07B
:1009700084E080939A011092E4011092E501E091E5
:100980009E01F0919F0109958091E501882329F44A
:1009900081E08093E5011092C4019091E401E92F78
:1009A000F0E0EC53FE4F80818093BB009F5F9093FB
:1009B000E4019091E4018091E501981710F485EC31
:1009C00001C085E88093BC000FC085EC8093BC001B
:1009D00009C01092070285ED8093BC008091BC0095
:1009E00084FDFCCF10929A01FF91EF91BF91AF91DE
:1009F0009F918F917F916F915F914F913F912F9137
:100A00000F900FBE0F901F90189510929A0181E0E1
:100A100080939C0110929D0182E161E00E943E065C
:100A200083E161E00E943E06E9EBF0E080818E7F89
:100A3000808380818D7F808388E48093B80085E403
:100A40008093BC0008951F920F920FB60F9211244D
:100A50002F933F938F939F93AF93BF9380910C02FB
:100A600090910D02A0910E02B0910F0230911002F0
:100A70000196A11DB11D232F2D5F2D3720F02D577D
:100A80000196A11DB11D2093100280930C0290933A
:100A90000D02A0930E02B0930F0280910802909174
:100AA0000902A0910A02B0910B020196A11DB11D8D
:100AB0008093080290930902A0930A02B0930B025C
:100AC000BF91AF919F918F913F912F910F900FBE4A
:100AD0000F901F9018959B01AC017FB7F8948091FF
:100AE000080290910902A0910A02B0910B0266B52A
:100AF000A89B05C06F3F19F00196A11DB11D7FBFD6
:100B0000BA2FA92F982F8827860F911DA11DB11DDF
:100B100062E0880F991FAA1FBB1F6A95D1F7BC011D
:100B20002DC0FFB7F8948091080290910902A0911E
:100B30000A02B0910B02E6B5A89B05C0EF3F19F081
:100B40000196A11DB11DFFBFBA2FA92F982F88278D
:100B50008E0F911DA11DB11DE2E0880F991FAA1FE4
:100B6000BB1FEA95D1F7861B970B885E9340C8F2AE
:100B7000215030404040504068517C4F2115310594
:100B80004105510571F60895789484B5826084BD5D
:100B900084B5816084BD85B5826085BD85B5816081
:100BA00085BDEEE6F0E0808181608083E1E8F0E0E1
:100BB0001082808182608083808181608083E0E810
:100BC000F0E0808181608083E1EBF0E080818460EF
:100BD0008083E0EBF0E0808181608083EAE7F0E0F1
:100BE0008081846080838081826080838081816055
:100BF00080838081806880831092C1000895CF93A4
:100C0000DF93482F50E0CA0186569F4FFC01349174
:100C10004A575F4FFA018491882369F190E0880F69
:100C2000991FFC01E859FF4FA591B491FC01EE58C2
:100C3000FF4FC591D491662351F42FB7F8948C914E
:100C4000932F909589238C93888189230BC06230E0
:100C500061F42FB7F8948C91932F909589238C93FE
:100C60008881832B88832FBF06C09FB7F8948C910F
:100C7000832B8C939FBFDF91CF910895482F50E035
:100C8000CA0182559F4FFC012491CA0186569F4F8D
:100C9000FC0194914A575F4FFA013491332309F4D0
:100CA00040C0222351F1233071F0243028F4213048
:100CB000A1F0223011F514C02630B1F02730C1F078
:100CC0002430D9F404C0809180008F7703C08091D4
:100CD00080008F7D8093800010C084B58F7702C024
:100CE00084B58F7D84BD09C08091B0008F7703C02B
:100CF0008091B0008F7D8093B000E32FF0E0EE0F85
:100D0000FF1FEE58FF4FA591B4912FB7F8946623BB
:100D100021F48C919095892302C08C91892B8C931E
:100D20002FBF0895682F70E0CB0182559F4FFC01C3
:100D30002491CB0186569F4FFC0144916A577F4F07
:100D4000FB019491992319F420E030E03CC0222368
:100D500051F1233071F0243028F42130A1F02230F9
:100D600011F514C02630B1F02730C1F02430D9F489
:100D700004C0809180008F7703C0809180008F7DB8
:100D80008093800010C084B58F7702C084B58F7DBA
:100D900084BD09C08091B0008F7703C08091B000FE
:100DA0008F7D8093B000892F90E0880F991F845821
:100DB0009F4FFC01A591B4918C9120E030E08423F9
:100DC00011F021E030E0C901089508951F920F92BB
:100DD0000FB60F9211242F933F934F938F939F93AE
:100DE000EF93FF938091C00082FD1DC04091C6002B
:100DF00020915102309152022F5F3F4F2F7330707C
:100E000080915302909154022817390771F0E091B4
:100E10005102F0915202EF5EFD4F40833093520237
:100E20002093510202C08091C600FF91EF919F91E3
:100E30008F914F913F912F910F900FBE0F901F9068
:100E40001895E091A502F091A602E05CFF4F819118
:100E5000919120813181805C9F4F821B930B60E4D4
:100E600070E00E94110D892B11F00E94E506089593
:100E70001F920F920FB60F9211242F933F938F93CF
:100E80009F93EF93FF93209195023091960280916A
:100E90009702909198022817390731F48091C10088
:100EA0008F7D8093C10014C0E0919702F091980269
:100EB000EB5AFD4F20818091970290919802019604
:100EC0008F73907090939802809397022093C6003E
:100ED000FF91EF919F918F913F912F910F900FBEB6
:100EE0000F901F901895AF92BF92DF92EF92FF92F2
:100EF0000F931F93CF93DF93EC017A018B01DD24D5
:100F0000403081EE580780E0680780E0780711F0F4
:100F1000DD24D39491E0A92EB12CEC89FD89DD204C
:100F200069F0C50108A002C0880F991F0A94E2F772
:100F3000808360E079E08DE390E005C0108260E896
:100F400074E88EE190E0A80197010E94240D2150E1
:100F5000304040405040569547953795279580E161
:100F60002030380720F0DD2011F0DD24D6CFE889CD
:100F7000F9893083EA89FB89208319A2EE89FF89E8
:100F8000408121E030E0C9010C8C02C0880F991F1C
:100F90000A94E2F7482B4083EE89FF894081C9011A
:100FA0000D8C02C0880F991F0A94E2F7482B4083EA
:100FB000EE89FF894081C9010E8C02C0880F991FFC
:100FC0000A94E2F7482B4083EE89FF8980810F8CD9
:100FD00002C0220F331F0A94E2F7209528232083B2
:100FE000DF91CF911F910F91FF90EF90DF90BF9015
:100FF000AF900895DC011C96ED91FC911D97E05C8B
:10100000FF4F8191919120813181805C9F4F821BA4
:10101000930B60E470E00E94110D0895DC011C96B2
:10102000ED91FC911D97E05CFF4F20813181E054F0
:10103000F040DF01AE5BBF4F8D919C911197281757
:10104000390719F42FEF3FEF07C08D919C91E80FFE
:10105000F91F8081282F30E0C9010895DC011C961A
:10106000ED91FC911D97E05CFF4F20813181E054B0
:10107000F040DF01AE5BBF4F8D919C911197281717
:10108000390719F42FEF3FEF10C08D919C91119704
:10109000E80FF91F20818D919C91119701968F7314
:1010A000907011969C938E9330E0C9010895DC01F5
:1010B00091968C919197882339F05496ED91FC91FB
:1010C0005597808186FFF9CF91961C920895CF9312
:1010D000DF93EC01EE85FF85E05CFF4F20813181DD
:1010E000E054F0402F5F3F4F2F733070DF01AE5B55
:1010F000BF4F8D919C91119728173907D1F3E05C70
:10110000FF4F80819181E054F040E80FF91F608328
:10111000EE85FF85E05CFF4F31832083EE89FF89F8
:10112000208181E090E00F8C02C0880F991F0A9403
:10113000E2F7282B208381E089A3EC89FD89808157
:101140008064808381E090E0DF91CF9108951092D8
:101150009C0210929B0288EE93E0A0E0B0E08093A6
:101160009D0290939E02A0939F02B093A00289E3F8
:1011700091E090939A028093990281E192E090939A
:10118000A6028093A50285E592E09093A802809341
:10119000A70285EC90E09093AA028093A90284ECC8
:1011A00090E09093AC028093AB0280EC90E090933F
:1011B000AE028093AD0281EC90E09093B0028093F8
:1011C000AF0282EC90E09093B2028093B10286EC81
:1011D00090E09093B4028093B30284E08093B502D0
:1011E00083E08093B60287E08093B70285E0809326
:1011F000B80281E08093B90208950895CF93DF93F8
:101200000E94C4050E94FD080E949401C1E2D7E03B
:101210000E94C3002097E1F30E942107F9CFCF92EB
:10122000DF92EF92FF920F931F93CF93DF937C0196
:101230006B018A01C0E0D0E00FC0D6016D916D0155
:10124000D701ED91FC910190F081E02DC701099546
:10125000C80FD91F015010400115110571F7CE01BB
:10126000DF91CF911F910F91FF90EF90DF90CF9082
:101270000895EF92FF920F931F938C01DC01ED9183
:10128000FC910190F081E02D6DE009957C01D80181
:10129000ED91FC910190F081E02DC8016AE0099583
:1012A0009C012E0D3F1DC9011F910F91FF90EF90E2
:1012B0000895CF93DF93EC016115710519F420E0D7
:1012C00030E00FC0DB010D900020E9F71197A61B5D
:1012D000B70BE881F9810280F381E02DAD0109951A
:1012E0009C01C901DF91CF9108954F925F927F9247
:1012F0008F929F92AF92BF92CF92DF92EF92FF9226
:101300000F931F93DF93CF93CDB7DEB7A1970FB69F
:10131000F894DEBF0FBECDBF2C01742ECB0122305E
:1013200008F42AE019A231E2C32ED12CCC0EDD1E26
:10133000822E9924AA24BB24672D752FA501940120
:101340000E94240D79018A01C801B701A501940109
:101350000E94F20C472D461B0894C108D1084A3060
:1013600014F4405D01C0495CF6014083E114F104CE
:101370000105110521F07E2C5F2DC801DDCFC201D2
:10138000B6010E945909A1960FB6F894DEBF0FBEB0
:10139000CDBFCF91DF911F910F91FF90EF90DF9024
:1013A000CF90BF90AF909F908F907F905F904F9025
:1013B0000895DC012115310541F4ED91FC91019076
:1013C000F081E02D642F099508950E947509089514
:1013D000EF92FF920F931F939A017B0100E010E0C0
:1013E000B801A7010E94D9091F910F91FF90EF90BA
:1013F00008950E9459090895EF92FF920F931F9349
:101400007C010E9459098C01C7010E943909080F0B
:10141000191FC8011F910F91FF90EF900895FC01D3
:101420009B01848195816817790728F46081718117
:101430006115710529F41092BB026BEB72E002C0DA
:10144000620F731FCB0108950F931F93CF93DF9308
:10145000EC018B016F5F7F4F888199810E94110C95
:10146000009711F480E005C0998388831B830A8369
:1014700081E0DF91CF911F910F910895CF93DF937A
:10148000EC0188819981892B29F08A819B818617BB
:10149000970760F4CE010E94240A882341F08C81D2
:1014A0009D81892B19F4E881F981108281E0DF9117
:1014B000CF910895CF93DF93EC01888199810097B4
:1014C00011F00E94790B198218821D821C821B82E6
:1014D0001A82DF91CF910895EF92FF920F931F939D
:1014E000CF93DF93EC017B018A01BA010E943E0A8F
:1014F000882321F4CE010E945A0A07C01D830C8361
:1015000088819981B7010E949600CE01DF91CF9129
:101510001F910F91FF90EF9008950F931F93182F35
:10152000092F6115710559F0DB010D900020E9F7D5
:101530001197A61BB70BAD010E946C0A02C00E9456
:101540005A0A812F902F1F910F910895EF92FF92C9
:101550000F931F93DF93CF93CDB7DEB761970FB68D
:10156000F894DEBF0FBECDBF8C01CB01F801118214
:10157000108213821282158214827E010894E11C6B
:10158000F11CB70150E00E949D00C801B7010E9404
:101590008D0A61960FB6F894DEBF0FBECDBFCF9116
:1015A000DF911F910F91FF90EF900895FC018081D2
:1015B00091810E94790B08950F931F93CF93DF932E
:1015C000BC018230910510F462E070E0E091BE024F
:1015D000F091BF0240E050E0A0E0B0E024C0808184
:1015E000918186179707D0F08617970771F482814B
:1015F0009381109729F013969C938E9312972CC089
:101600009093BF028093BE0227C04115510519F087
:101610008417950718F48D01AC01EF01DF01828179
:1016200093819C01F9013097D1F641155105F9F0EC
:10163000CA01861B970B8430910580F48A819B81B7
:101640000115110521F0F8019383828304C0909362
:10165000BF028093BE02FE01329645C0FE01E80F34
:10166000F91F619371930297998388833CC080919D
:10167000BC029091BD02892B41F48091210190918F
:1016800022019093BD028093BC02409123015091AE
:1016900024014115510541F44DB75EB780911F01FA
:1016A00090912001481B590B2091BC023091BD0242
:1016B00024173507B0F4CA01821B930B86179707CE
:1016C00080F0AB014E5F5F4F8417950750F0420FDB
:1016D000531F5093BD024093BC02F9016193719373
:1016E00002C0E0E0F0E0CF01DF91CF911F910F91B8
:1016F0000895CF93DF939C01009709F48FC0EC010C
:1017000022971B821A826091BE027091BF026115FE
:10171000710581F488819981820F931F2091BC0209
:101720003091BD022817390739F5D093BD02C09317
:10173000BC0274C0DB0140E050E0AC17BD0708F10B
:10174000BB83AA83FE0121913191E20FF31FAE17F3
:10175000BF0779F48D919C911197280F391F2E5F47
:101760003F4F3983288312968D919C9113979B83C9
:101770008A834115510571F4D093BF02C093BE0214
:101780004DC012968D919C911397AD01009711F069
:10179000DC01D3CFDA011396DC93CE931297FA01D2
:1017A00021913191E20FF31FCE17DF0769F4888191
:1017B0009981280F391F2E5F3F4FFA013183208313
:1017C0008A819B8193838283E0E0F0E0DB011296C3
:1017D0008D919C911397009719F0BC01FD01F6CFF4
:1017E000AB014E5F5F4FDB018D919C91840F951F84
:1017F0002091BC023091BD022817390779F4309747
:1018000029F41092BF021092BE0202C0138212820B
:10181000425050405093BD024093BC02DF91CF91A3
:1018200008956F927F928F929F92AF92BF92CF92C4
:10183000DF92EF92FF920F931F93CF93DF938C0170
:10184000009729F4CB010E94DC0A8C01BBC08EEF0B
:10185000E82E8FEFF82EE00EF11E4801860E971E3F
:101860008E149F0408F4ACC0D7014D915C91119780
:1018700046175707B8F04530510508F4A3C0CA0110
:1018800004978617970708F49DC042505040461BA6
:10189000570BF401419351936D937C93CF010E94B8
:1018A000790B90C05B01A41AB50A3801640E751E4D
:1018B000A091BE02B091BF02E0E0F0E0CC24DD24B4
:1018C00047C0A615B705A9F5CD91DC911197CE01BA
:1018D00002968A159B0568F1CE018A199B0902962A
:1018E00012962C91129713963C91059758F0F4019B
:1018F00022833383CA19DB09D183C083D7016D9357
:101900007C9309C04E5F5F4F4C0F5D1FF701518301
:101910004083C901FC01C114D10431F0D6011396F2
:10192000FC93EE9312974EC0F093BF02E093BE0279
:1019300049C08D919C911197E817F90708F4FC01B3
:101940006D0112968C91129713969C919C01D9016E
:10195000109709F0B6CF8091BC029091BD02861518
:101960009705E9F4E617F707D0F4209123013091A9
:1019700024012115310541F42DB73EB780911F0197
:1019800090912001281B390B82169306C8F490927F
:10199000BD028092BC02F7017183608313C0CB014A
:1019A0000E94DC0AEC01009759F0D7014D915C913F
:1019B000B8010E948D00C8010E94790B8E0102C0FF
:1019C00000E010E0C801DF91CF911F910F91FF90CF
:1019D000EF90DF90CF90BF90AF909F908F907F90CF
:1019E0006F900895629FD001739FF001829FE00D78
:1019F000F11D649FE00DF11D929FF00D839FF00D8E
:101A0000749FF00D659FF00D9927729FB00DE11D39
:101A1000F91F639FB00DE11DF91FBD01CF01112416
:101A2000089597FB092E07260AD077FD04D02ED003
:101A300006D000201AF4709561957F4F0895F6F74F
:101A4000909581959F4F0895A1E21A2EAA1BBB1B6A
:101A5000FD010DC0AA1FBB1FEE1FFF1FA217B3077A
:101A6000E407F50720F0A21BB30BE40BF50B661F90
:101A7000771F881F991F1A9469F760957095809554
:101A800090959B01AC01BD01CF010895AA1BBB1B22
:101A900051E107C0AA1FBB1FA617B70710F0A61B6E
:101AA000B70B881F991F5A95A9F780959095BC018F
:101AB000CD010895EE0FFF1F0590F491E02D0994DC
:041AC000F894FFCFC8
:101AC4002E30002E35000053656C6563742031732D
:101AD4007420536C6F740002030405060708098020
:101AE40000C00200000000000058022702E001E9E3
:101AF40001FE010F020000000067080F09FA072E1B
:061B0400080E085708005E
:00000001FF
